:040000000CEF36F0DB
:106BC200C2821200C2A202D0010E1200000E1200F6
:106BD200026EACA2FED70250F0EC35F01200016E4C
:106BE200ACAC03D0AC905CB2AC8001C0ADFF120083
:106BF20001500302F3CF05F0F4CF06F00150040276
:106C0200F350062602500302F350062605C001F097
:106C120006C002F0120001EE00F0800EEE6AE806F5
:106C2200FDE100EE60F0850EEE6AE806FDE15D6AC8
:106C32005C6A5B6A5A6A000EF86E0001B9EF36F0C0
:106C4200000E5B6E000E5A6E0ED0D8905A34D96E7A
:106C52005B34DA6E0350D9260450DA22DF50E9ECB5
:106C620035F05A4A5B2A05505A5C06505B58D8B038
:106C72001200EBD7056E000EC26E000EC16E000E42
:106C8200C06E01507C0BC26E02C0C1FF05C003F092
:106C9200D8900336D8900336380E031605C004F098
:106CA200043A0F0E0416070E04160550800B04104A
:106CB2000310C06E01AE03D09E9C9D8CF28CC280EC
:106CC2001200000E096E000E0A6E000E0B6E000E10
:106CD2000C6E01A008D00550092606500A22075062
:106CE2000B2208500C22D890053606360736083695
:106CF200D8900432033202320132045001100210E1
:106D02000310D8A4E6D709C001F00AC002F00BC0F4
:106D120003F00CC004F01200066E000EAC6E000E02
:106D2200AB6E06B0AC8806A202D0AC8CAB8C06B4BB
:106D3200AC8E06A602D0AB8801D0AB8A06B8AC8472
:106D420006BAAB8606AC02D09D8A01D09D9A06AEE9
:106D520002D09D8801D09D9801C0AFFF02C003F010
:106D620003C004F0056A0450B06EAC8AAB8E120008
:106D720092860F013887928E000E946E000E8B6EF3
:106D8200000E0F013A6F948C948ED388D38AD38CE1
:106D9200030ED3129B809B829B849B869B989B9A1B
:106DA200190E0001F36F000E0001F46F000E0001D6
:106DB200F56F000E0001F66F000E016E0E0E026EF0
:106DC200F10E3BEC36F04F0EAB16AC9ACF0E9D1681
:106DD200F3C001F0F4C002F02C0E8DEC36F0000E80
:106DE2000001EC6F000E0001EB6F000E0001EC6F72
:106DF200000E0001EB6F0001EC51800A800F400E83
:106E0200D8B4EB5DD8B049D0E1EC35F0E3EC35F025
:106E12000009D8A4FBD7C350C4CF4DF04E6A4DC071
:106E22004EF04D6A4D26000E4E22000E4D240001FA
:106E3200E56FFE0E4E200001E66F650E4D6E000EF0
:106E42004E6ED8900001EB35D96E0001EC35DA6E4A
:106E52004D50D9264E50DA220001E5C0DEFF000176
:106E6200E6C0DDFF000E4D6E010E4E6ED8900001A1
:106E7200EB35D96E0001EC35DA6E4D50D9264E5005
:106E8200DA22000EDE6E000EDD6EFA0E00F0E82E43
:106E9200FDD70001EB4BEC2BAED70001000E0E6EBE
:106EA2000001650E0D6E0101010E106E0101000E52
:106EB2000F6E000E126E060E116E39EC39F0000ED6
:106EC2000001F26F000E0001F16F000E0001F26F7F
:106ED200000E0001F16F0001F251800A800F200EB6
:106EE200D8B4F15DD8B0B7D1650E4D6E000E4E6EBE
:106EF200D8900001F135D96E0001F235DA6E4D50AD
:106F0200D9264E50DA22DECF01F0DDCF02F0650E37
:106F12004F6E000E506ED8900001F135D96E00010F
:106F2200F235DA6E4F50D9265050DA22DECF03F016
:106F3200DDCF04F0F9EC35F001C051F002C052F09F
:106F4200000E536E010E546ED8900001F135D96EC9
:106F52000001F235DA6E5350D9265450DA22DECFD0
:106F620001F0DDCF02F0000E556E010E566ED89084
:106F72000001F135D96E0001F235DA6E5550D9268D
:106F82005650DA22DECF03F0DDCF04F0F9EC35F013
:106F92000150512602505222650E576E000E586E55
:106FA200D8900001F135D96E0001F235DA6E5750F2
:106FB200D9265850DA2251C0DEFF52C0DDFF000E42
:106FC2000001ED6F000E0001EE6F000E0001EF6F89
:106FD200400E0001F06F000E0001E76F000E00018D
:106FE200E86F000E0001E96F000E0001EA6F650E06
:106FF2004D6E000E4E6ED8900001F135D96E000133
:10700200F235DA6E4D50D9264E50DA22DECF4FF0ED
:10701200DDCF50F050AE21D005D1020E4D6E0001F1
:10702200EDC04EF00001EEC04FF00001EFC050F095
:107032000001F0C051F04D6601D007D051345132F9
:1070420050324F324E324D2EF6D74EC0EDF04FC079
:10705200EEF050C0EFF051C0F0F0650E4D6E000E34
:107062004E6ED8900001F135D96E0001F235DA6E1C
:107072004D50D9264E50DA22DECF4FF0DDCF50F000
:107082004FC051F050C052F0000E52BEFF0E536E70
:10709200546E5450800A556E0001ED51515C00014E
:1070A200EE5152580001EF5153580001F051800A3D
:1070B2005558D8B0B0D0B1D70001ED510001E72545
:1070C2004D6E0001EE510001E8214E6E0001EF51BC
:1070D2000001E9214F6E0001F0510001EA21506EDA
:1070E200650E516E000E526ED8900001F135D96EC8
:1070F2000001F235DA6E5150D9265250DA22DECF33
:1071020053F0DDCF54F053C055F054C056F0000E8A
:1071120056BEFF0E576E586E5850800A596E4D502B
:10712200555C4E5056584F5057585050800A595837
:10713200D8A038D00001E7C04DF00001E8C04EF001
:107142000001ED514D260001EE514E22650E4F6EAB
:10715200000E506ED8900001F135D96E0001F23563
:10716200DA6E4F50D9265050DA224D50DE5E4E5024
:10717200DD5AD8900001ED354D6E0001EE354E6EB0
:107182000001EF354F6E0001F035506E4D50000199
:10719200E7274E500001E8234F500001E9235050E9
:1071A2000001EA230001E7C04DF00001E8C04EF003
:1071B2000001E9C04FF00001EAC050F050345032F3
:1071C2004F324E324D324DC0E7F04EC0E8F04FC064
:1071D200E9F050C0EAF0020E4D6E0001EDC04EF033
:1071E2000001EEC04FF00001EFC050F00001F0C00E
:1071F20051F04D6601D007D05134513250324F32E6
:107202004E324D2EF6D74EC0EDF04FC0EEF050C0CC
:10721200EFF051C0F0F00001F051ED11EE11EF115D
:10722200D8A44AD7650E4D6E000E4E6ED89000015E
:10723200F135D96E0001F235DA6E4D50D9264E5035
:10724200DA220001E7C0DEFF0001E8C0DDFF000135
:10725200F14BF22B40D60001000E046E0001650EC8
:10726200036E000E066E200E056E21EC36F0B7D5C9
:10727200000E3D6E000E3E6E000E3F6E000E406E22
:1072820011C013F0010E146E156A132A03D0D890A0
:1072920014361536132EFBD714C02FF015C030F05C
:1072A200000E30BEFF0E316E326EFF0E2F241F6EA7
:1072B200FF0E3020206EFF0E3120216EFF0E322095
:1072C200226E000E126E010E116EC4D02FC041F05C
:1072D20030C042F031C043F032C044F04434443252
:1072E20043324232413241503D24136E42503E20DD
:1072F200146E43503F20156E44504020166E2250AB
:10730200800A176E13501F5C1450205815502158D4
:107312001650800A1758D8A0E1D7FF0E4124136EE9
:10732200FF0E4220146EFF0E4320156EFF0E442006
:10733200166E3D501314176E3E501414186E3F50C3
:107342001514196E405016141A6E415017243D6ED2
:10735200425018203E6E435019203F6E44501A206E
:10736200406E11C013F012C014F0000E14BEFF0ED6
:10737200156E166E1650800A176E3D50135C3E5005
:1073820014583F5015584050800A1758D8B060D052
:10739200D8901134D96E1234DA6E0D50D9260E50AF
:1073A200DA22DECF33F0DDCF34F0D8903D34D96E1F
:1073B2003E34DA6E0D50D9260E50DA22D8901134AE
:1073C200E16E1234E26E0D50E1260E50E222DECF63
:1073D200E6FFDDCFE5FFD8903D34D96E3E34DA6E5C
:1073E2000D50D9260E50DA2233C0DEFF34C0DDFF45
:1073F200D8901134D96E1234DA6E0F50D92610504B
:10740200DA22DECF35F0DDCF36F0D8903D34D96EBA
:107412003E34DA6E0F50D9261050DA22D890113449
:10742200E16E1234E26E0F50E1261050E222DECFFE
:10743200E6FFDDCFE5FFD8903D34D96E3E34DA6EFB
:107442000F50D9261050DA2235C0DEFF36C0DDFFDC
:10745200114A122A11C013F012C014F0000E14BE09
:10746200FF0E156E166E2250800A176E13501F5CA7
:1074720014502058155021581650800A1758D8B069
:1074820025D7010E416E000E426E000E436E000EB5
:10749200446E090E1B6E000E1C6E000E1D6E000E59
:1074A2001E6E9DD2D8904134236E4234246E4334F2
:1074B200256E4434266E000E126E000E116E68D2D6
:1074C2001BC013F011C014F012C015F0132A03D020
:1074D200D89014361536132EFBD714C045F015C0BC
:1074E20046F0000E46BEFF0E476E486E000E136E4B
:1074F200020E146E45C015F046C016F0D89015362F
:1075020016361350152614501622FF0E1524F66E49
:10751200790E1620F76E0900F5CF2BF00A00F5CF91
:107522002CF045C013F046C014F0D8901336143630
:10753200FF0E1324F66E790E1420F76E0900F5CFB4
:1075420015F00900F5CF16F0151E161E154A162A5B
:1075520015C02DF016C02EF02C342C322B322E34C6
:107562002E322D3211C039F012C03AF0000E3ABE5E
:10757200FF0E3B6E3C6EFCD141503924456E4250A9
:107582003A20466E43503B20476E44503C20486EA2
:107592002BC001F02CC002F0000E02BEFF0E036EE3
:1075A200046ED8904534D96E4634DA6E0D50D92621
:1075B2000E50DA22DECF05F0DDCF06F0000E06BE59
:1075C200FF0E076E086E62EC36F001C049F002C091
:1075D2004AF003C04BF004C04CF00E0E136E49C0CB
:1075E20014F04AC015F04BC016F04CC017F01366E9
:1075F20001D007D017341732163215321432132E37
:10760200F6D714C049F015C04AF016C04BF017C0A7
:107612004CF0010E4914376E386A49C013F04AC063
:1076220014F04BC015F04CC016F016341632153259
:107632001432133237501324336E38501420346E00
:107642002DC001F02EC002F0000E02BEFF0E036E2E
:10765200046ED8904534D96E4634DA6E0F50D9266E
:107662001050DA22DECF05F0DDCF06F0000E06BEA6
:10767200FF0E076E086E62EC36F001C049F002C0E0
:107682004AF003C04BF004C04CF00E0E136E49C01A
:1076920014F04AC015F04BC016F04CC017F0136638
:1076A20001D007D017341732163215321432132E86
:1076B200F6D714C049F015C04AF016C04BF017C0F7
:1076C2004CF0010E4914376E386A49C013F04AC0B3
:1076D20014F04BC015F04CC016F0163416321532A9
:1076E200143213323750132638501422131E141E2C
:1076F200134A142A33501324336E34501420346E38
:107702002BC001F02CC002F0000E02BEFF0E036E71
:10771200046ED8904534D96E4634DA6E0F50D926AD
:107722001050DA22DECF05F0DDCF06F0000E06BEE5
:10773200FF0E076E086E62EC36F001C049F002C01F
:107742004AF003C04BF004C04CF00E0E136E49C059
:1077520014F04AC015F04BC016F04CC017F0136677
:1077620001D007D017341732163215321432132EC5
:10777200F6D714C049F015C04AF016C04BF017C036
:107782004CF0010E4914376E386A49C013F04AC0F2
:1077920014F04BC015F04CC016F0163416321532E8
:1077A2001432133237501324356E38501420366E8B
:1077B2002DC001F02EC002F0000E02BEFF0E036EBD
:1077C200046ED8904534D96E4634DA6E0D50D926FF
:1077D2000E50DA22DECF05F0DDCF06F0000E06BE37
:1077E200FF0E076E086E62EC36F001C049F002C06F
:1077F2004AF003C04BF004C04CF00E0E136E49C0A9
:1078020014F04AC015F04BC016F04CC017F01366C6
:1078120001D007D017341732163215321432132E14
:10782200F6D714C049F015C04AF016C04BF017C085
:107832004CF0010E4914376E386A49C013F04AC041
:1078420014F04BC015F04CC016F016341632153237
:107852001432133237501326385014223550132461
:10786200356E36501420366ED8903934D96E3A348B
:10787200DA6E0D50D9260E50DA22DECF27F0DDCF98
:1078820028F0D8903934D96E3A34DA6E0F50D926AE
:107892001050DA22DECF29F0DDCF2AF02834283248
:1078A20027322A342A32293233C013F034C014F07A
:1078B200131E141E134A142A27501326285014226A
:1078C200D8904534D96E4634DA6E0D50D9260E5012
:1078D200DA2213C0DEFF14C0DDFF35C013F036C05C
:1078E20014F0131E141E134A142A295013262A5068
:1078F2001422D8904534D96E4634DA6E0F50D92608
:107902001050DA2213C0DEFF14C0DDFF27C013F0CF
:1079120028C014F03350132634501422D89039342E
:10792200D96E3A34DA6E0D50D9260E50DA2213C0CF
:10793200DEFF14C0DDFF29C013F02AC014F0355059
:10794200132636501422D8903934D96E3A34DA6E6E
:107952000F50D9261050DA2213C0DEFF14C0DDFF0B
:107962002350392624503A2225503B2226503C22CD
:107972003C50800A136E2F50395C30503A583150C7
:107982003B583250800A1358D8A0F6D5114A122A11
:1079920011C013F012C014F0000E14BEFF0E156ECB
:1079A200166E1650800A176E4150135C42501458DE
:1079B200435015584450800A1758D8A081D5FF0E5D
:1079C2001B26FF0E1C22FF0E1D22FF0E1E2223C0AD
:1079D20041F024C042F025C043F026C044F0445098
:1079E200800A136E2F50415C305042583150435838
:1079F2003250800A1358D8B0120054D5000000C982
:107A02000092015B022403ED03B6047E05470610D3
:107A120007D907A1086A09320AFB0AC30B8B0C5368
:107A22000D1B0EE30EAB0F721039110012C7128E2E
:107A32001355141B15E115A7166D173318F818BD49
:107A420019821A461B0B1CCF1C931D561E191FDCD4
:107A52001F9F2061212322E422A62367242725E7F2
:107A620025A72667272628E528A329612A1E2BDBBE
:107A72002B982C542D102ECC2E862F4130FB30B457
:107A8200316D322633DE3396344D350336B9366FD7
:107A9200372438D8388C393F3AF23AA43B563C075F
:107AA2003DB73D673E163FC53F73402041CD41790A
:107AB200422543D0437A442345CC4574461C47C3F0
:107AC2004769480E49B349574AFA4A9D4B3F4CE031
:107AD2004C804D204EBF4E5D4FFA4F97503351CEE2
:107AE20051685201539A533254C9545F55F455891F
:107AF200561D57B0574258D3586359F359815A0FFC
:107B02005B9C5B285CB35C3D5DC65D4F5ED65E5D93
:107B12005FE25F6760EB606E61F0617162F16270FB
:107B220063EE636B64E7646265DD655666CE664547
:107B320067BC673168A56819698B69FC696C6ADB87
:107B42006A4A6BB76B236C8E6CF86C616DC96D30D1
:107B52006E956EFA6E5E6FC06F22708270E1704039
:107B6200719D71F9715472AE7206735E73B5730AC8
:107B7200745E74B17403755475A475F37540768D93
:107B820076D87622776B77B377F9773F788378C6A2
:107B920078087949798979C779047A417A7C7AB502
:107BA2007AEE7A257B5C7B917BC47BF77B297C59BF
:107BB2007C887CB67CE27C0E7D387D617D897DB0DF
:107BC2007DD57DF97D1C7E3E7E5E7E7E7E9C7EB96D
:107BD2007ED47EEF7E087F207F377F4C7F617F746B
:107BE2007F867F967FA67FB47FC17FCD7FD77FE0E0
:107BF2007FE87FEF7FF57FF97FFC7FFE7FFF7FFECF
:107C02007FFC7FF97FF57FEF7FE87FE07FD77FCD35
:107C12007FC17FB47FA67F967F867F747F617F4C12
:107C22007F377F207F087FEF7ED47EB97E9C7E7E69
:107C32007E5E7E3E7E1C7EF97DD57DB07D897D6136
:107C42007D387D0E7DE27CB67C887C597C297CF770
:107C52007BC47B917B5C7B257BEE7AB57A7C7A4117
:107C62007A047AC779897949790879C67883783F1D
:107C720078F977B3776B772277D8768D764076F37B
:107C820075A47554750375B1745E740A74B5735E28
:107C9200730673AE725472F9719D714071E1708214
:107CA200702270C06F5E6FFA6E956E306EC96D6134
:107CB2006DF86C8E6C236CB76B4A6BDB6A6C6AFC7A
:107CC200698B691969A5683168BC674567CE6656D4
:107CD20066DD656265E7646B64EE637063F1627131
:107CE20062F0616E61EB606760E25F5D5FD65E4F7E
:107CF2005EC65D3D5DB35C285C9C5B0F5B815AF3A5
:107D0200596359D3584258B0571D578956F4555F95
:107D120055C95432549A5301536852CE5133519734
:107D220050FA4F5D4FBF4E204E804DE04C3F4C9D70
:107D32004BFA4A574AB3490E496948C3471C47742C
:107D420046CC4523457A44D04325437942CD412050
:107D5200417340C53F163F673EB73D073D563CA4C1
:107D62003BF23A3F3A8C39D83824386F37B9360368
:107D7200364D359634DE3326336D32B431FB304125
:107D820030862FCC2E102E542D982CDB2B1E2B61DF
:107D92002AA329E52826286727A726E72527256776
:107DA20024A623E422232261219F20DC1F191F56CF
:107DB2001E931DCF1C0B1C461B821ABD19F81833CB
:107DC200186D17A716E1151B1555148E13C712004F
:107DD2001239117210AB0FE30E1B0E530D8B0CC335
:107DE2000BFB0A320A6A09A108D907100747067E67
:107DF20005B604ED0324035B029201C900000037BB
:107E0200FF6EFEA5FDDCFC13FC4AFB82FAB9F9F019
:107E1200F827F85FF796F6CEF505F53DF475F3AD64
:107E2200F2E5F11DF155F08EEFC7EE00EE39ED727D
:107E3200ECABEBE5EA1FEA59E993E8CDE708E74343
:107E4200E67EE5BAE4F5E331E36DE2AAE1E7E02498
:107E5200E061DF9FDEDDDD1CDD5ADC99DBD9DA195A
:107E6200DA59D999D8DAD71BD75DD69FD5E2D4256E
:107E7200D468D3ACD2F0D134D17AD0BFCF05CF4CB5
:107E8200CE93CDDACC22CC6ACBB3CAFDC947C99115
:107E9200C8DCC728C774C6C1C50EC55CC4AAC3F96D
:107EA200C249C299C1EAC03BC08DBFE0BE33BE87A2
:107EB200BDDBBC30BC86BBDDBA34BA8CB9E4B83D9C
:107EC200B897B7F2B64DB6A9B506B563B4C1B3203B
:107ED200B380B2E0B141B1A3B006B069AFCDAE326A
:107EE200AE98ADFFAC66ACCEAB37ABA1AA0CAA770D
:107EF200A9E3A850A8BEA72DA79DA60DA67FA5F110
:107F0200A464A4D8A34DA3C3A23AA2B1A12AA1A357
:107F1200A01EA0999F159F929E109E8F9D0F9D90CF
:107F22009C129C959B199B9E9A239AAA993299BB63
:107F3200984498CF975B97E7967596049694952503
:107F420095B6944994DD93729308939F923792D099
:107F5200916B910691A2904090DE8F7E8F1F8FC011
:107F62008E638E078EAC8D528DFA8CA28C4B8CF662
:107F72008BA28B4F8BFD8AAC8A5C8A0D8AC0897377
:107F8200892889DE8895884D880788C1877D873A48
:107F920087F886B78677863986FC85BF8584854BC8
:107FA200851285DB84A4846F843C840984D783A7EB
:107FB2008378834A831E83F282C8829F82778250AB
:107FC200822B820782E481C281A2818281648147FD
:107FD200812C811181F880E080C980B4809F808CDF
:107FE200807A806A805A804C803F8033802980204A
:0E7FF20080188011800B8007800480028000C0
:020000040020DA
:08000000FFFFFFFFFFFFFFFF00
:020000040030CA
:0E000000FF091F3CFFBF81FF0FC00FE00F4044
:00000001FF
