:04000000F6EF3BF0EC
:1077B200C2821200C450026EC350016E1200C2A2F5
:1077C20002D0010E1200000E1200026EACA2FED711
:1077D2000250EDEC3BF01200016EACAC03D0AC9069
:1077E20014B2AC8001C0ADFF120001EE00F0800EB9
:1077F200EE6AE806FDE100EE60F0800EEE6AE80651
:10780200FDE100EE0DF0090EEE6AE806FDE1000E64
:10781200F86E00017AEF3CF0000E136E000E126E4D
:107822000ED0D8901234D96E1334DA6E0350D926A2
:107832000450DA22DF50E6EC3BF0124A132A0550DC
:10784200125C06501358D8B01200EBD7056E000E2A
:10785200C26E000EC16E000EC06E01507C0BC26E75
:1078620002C0C1FF05C003F0D8900336D89003369A
:10787200380E031605C004F0043A0F0E0416070E64
:1078820004160550800B04100310C06E01AE03D025
:107892009E9C9D8CF28CC2801200066E000EAC6E15
:1078A200000EAB6E06B0AC8806A202D0AC8CAB8CDC
:1078B20006B4AC8E06A602D0AB8801D0AB8A06B85D
:1078C200AC8406BAAB8606AC02D09D8A01D09D9AE2
:1078D20006AE02D09D8801D09D9801C0AFFF02C0C4
:1078E20003F003C004F0056A0450B06EAC8AAB8E9C
:1078F2001200928E000E946E000E8B6E000E0F011F
:107902003A6F948C948ED388D38AD38C030ED3127D
:107912009B809B829B849B869B989B9A190E166EDA
:10792200000E176E000E186E000E196E000E016E1C
:107932000E0E026EF10E27EC3CF04F0EAB16AC9A17
:10794200CF0E9D1616C001F017C002F02C0E4EECA1
:107952003CF0000E0C6E000E0B6E000E0C6E000E54
:107962000B6E0C50800A800F400ED8B40B5CD8B05E
:1079720038D0D9EC3BF0E0EC3BF00009D8A4FBD7BF
:10798200DBEC3BF0023402320132023402320132C9
:1079920001C009F002C00AF0600E076E000E086E08
:1079A200D8900B34D96E0C34DA6E0750D9260850B1
:1079B200DA220BC0DEFF0CC0DDFF000E076E010EE7
:1079C200086ED8900B34D96E0C34DA6E0750D92673
:1079D2000850DA22000EDE6E000EDD6E0B4A0C2A13
:1079E200C0D70001000E046E0001600E036E000E8F
:1079F200066E400E056E0DEC3CF0ABD7000000C9E0
:107A02000092015B022403ED03B6047E05470610D3
:107A120007D907A1086A09320AFB0AC30B8B0C5368
:107A22000D1B0EE30EAB0F721039110012C7128E2E
:107A32001355141B15E115A7166D173318F818BD49
:107A420019821A461B0B1CCF1C931D561E191FDCD4
:107A52001F9F2061212322E422A62367242725E7F2
:107A620025A72667272628E528A329612A1E2BDBBE
:107A72002B982C542D102ECC2E862F4130FB30B457
:107A8200316D322633DE3396344D350336B9366FD7
:107A9200372438D8388C393F3AF23AA43B563C075F
:107AA2003DB73D673E163FC53F73402041CD41790A
:107AB200422543D0437A442345CC4574461C47C3F0
:107AC2004769480E49B349574AFA4A9D4B3F4CE031
:107AD2004C804D204EBF4E5D4FFA4F97503351CEE2
:107AE20051685201539A533254C9545F55F455891F
:107AF200561D57B0574258D3586359F359815A0FFC
:107B02005B9C5B285CB35C3D5DC65D4F5ED65E5D93
:107B12005FE25F6760EB606E61F0617162F16270FB
:107B220063EE636B64E7646265DD655666CE664547
:107B320067BC673168A56819698B69FC696C6ADB87
:107B42006A4A6BB76B236C8E6CF86C616DC96D30D1
:107B52006E956EFA6E5E6FC06F22708270E1704039
:107B6200719D71F9715472AE7206735E73B5730AC8
:107B7200745E74B17403755475A475F37540768D93
:107B820076D87622776B77B377F9773F788378C6A2
:107B920078087949798979C779047A417A7C7AB502
:107BA2007AEE7A257B5C7B917BC47BF77B297C59BF
:107BB2007C887CB67CE27C0E7D387D617D897DB0DF
:107BC2007DD57DF97D1C7E3E7E5E7E7E7E9C7EB96D
:107BD2007ED47EEF7E087F207F377F4C7F617F746B
:107BE2007F867F967FA67FB47FC17FCD7FD77FE0E0
:107BF2007FE87FEF7FF57FF97FFC7FFE7FFF7FFECF
:107C02007FFC7FF97FF57FEF7FE87FE07FD77FCD35
:107C12007FC17FB47FA67F967F867F747F617F4C12
:107C22007F377F207F087FEF7ED47EB97E9C7E7E69
:107C32007E5E7E3E7E1C7EF97DD57DB07D897D6136
:107C42007D387D0E7DE27CB67C887C597C297CF770
:107C52007BC47B917B5C7B257BEE7AB57A7C7A4117
:107C62007A047AC779897949790879C67883783F1D
:107C720078F977B3776B772277D8768D764076F37B
:107C820075A47554750375B1745E740A74B5735E28
:107C9200730673AE725472F9719D714071E1708214
:107CA200702270C06F5E6FFA6E956E306EC96D6134
:107CB2006DF86C8E6C236CB76B4A6BDB6A6C6AFC7A
:107CC200698B691969A5683168BC674567CE6656D4
:107CD20066DD656265E7646B64EE637063F1627131
:107CE20062F0616E61EB606760E25F5D5FD65E4F7E
:107CF2005EC65D3D5DB35C285C9C5B0F5B815AF3A5
:107D0200596359D3584258B0571D578956F4555F95
:107D120055C95432549A5301536852CE5133519734
:107D220050FA4F5D4FBF4E204E804DE04C3F4C9D70
:107D32004BFA4A574AB3490E496948C3471C47742C
:107D420046CC4523457A44D04325437942CD412050
:107D5200417340C53F163F673EB73D073D563CA4C1
:107D62003BF23A3F3A8C39D83824386F37B9360368
:107D7200364D359634DE3326336D32B431FB304125
:107D820030862FCC2E102E542D982CDB2B1E2B61DF
:107D92002AA329E52826286727A726E72527256776
:107DA20024A623E422232261219F20DC1F191F56CF
:107DB2001E931DCF1C0B1C461B821ABD19F81833CB
:107DC200186D17A716E1151B1555148E13C712004F
:107DD2001239117210AB0FE30E1B0E530D8B0CC335
:107DE2000BFB0A320A6A09A108D907100747067E67
:107DF20005B604ED0324035B029201C900000037BB
:107E0200FF6EFEA5FDDCFC13FC4AFB82FAB9F9F019
:107E1200F827F85FF796F6CEF505F53DF475F3AD64
:107E2200F2E5F11DF155F08EEFC7EE00EE39ED727D
:107E3200ECABEBE5EA1FEA59E993E8CDE708E74343
:107E4200E67EE5BAE4F5E331E36DE2AAE1E7E02498
:107E5200E061DF9FDEDDDD1CDD5ADC99DBD9DA195A
:107E6200DA59D999D8DAD71BD75DD69FD5E2D4256E
:107E7200D468D3ACD2F0D134D17AD0BFCF05CF4CB5
:107E8200CE93CDDACC22CC6ACBB3CAFDC947C99115
:107E9200C8DCC728C774C6C1C50EC55CC4AAC3F96D
:107EA200C249C299C1EAC03BC08DBFE0BE33BE87A2
:107EB200BDDBBC30BC86BBDDBA34BA8CB9E4B83D9C
:107EC200B897B7F2B64DB6A9B506B563B4C1B3203B
:107ED200B380B2E0B141B1A3B006B069AFCDAE326A
:107EE200AE98ADFFAC66ACCEAB37ABA1AA0CAA770D
:107EF200A9E3A850A8BEA72DA79DA60DA67FA5F110
:107F0200A464A4D8A34DA3C3A23AA2B1A12AA1A357
:107F1200A01EA0999F159F929E109E8F9D0F9D90CF
:107F22009C129C959B199B9E9A239AAA993299BB63
:107F3200984498CF975B97E7967596049694952503
:107F420095B6944994DD93729308939F923792D099
:107F5200916B910691A2904090DE8F7E8F1F8FC011
:107F62008E638E078EAC8D528DFA8CA28C4B8CF662
:107F72008BA28B4F8BFD8AAC8A5C8A0D8AC0897377
:107F8200892889DE8895884D880788C1877D873A48
:107F920087F886B78677863986FC85BF8584854BC8
:107FA200851285DB84A4846F843C840984D783A7EB
:107FB2008378834A831E83F282C8829F82778250AB
:107FC200822B820782E481C281A2818281648147FD
:107FD200812C811181F880E080C980B4809F808CDF
:107FE200807A806A805A804C803F8033802980204A
:0E7FF20080188011800B8007800480028000C0
:020000040020DA
:08000000FFFFFFFFFFFFFFFF00
:020000040030CA
:0E000000FF091F3CFFBF81FF0FC00FE00F4044
:00000001FF
