:0400000088EF2CF069
:10572E001200C2821200C2A202D0010E1200000E9E
:10573E001200026EACA2FED70250AFEC2BF012009C
:10574E00016E030EE82EFED700F0012EFAD71200DE
:10575E00016EACAC03D0AC905EB2AC8001C0ADFFBC
:10576E00120005D00106000E025A035A045A0450C4
:10577E00011002100310D8B41200F4D7026EC9CF74
:10578E0001F09E96C69E02C0C9FFC6AE02D0FF0EA5
:10579E0012009EA6FED7000E1200086E8B92070412
:1057AE00D8A402D08B8401D08B940850C5EC2BF07A
:1057BE000009D8A4FAD7140EA7EC2BF08B82120096
:1057CE0001500302F3CF05F0F4CF06F001500402AE
:1057DE00F350062602500302F350062605C001F0D0
:1057EE0006C002F01200000E026E000E016E025094
:1057FE00800A7E0F6A0ED8B4015CD8B01200000E7B
:10580E000124D96E020E0220DA6E000EDF6E014AFE
:10581E00022AEDD7000E5D6E000E5C6E0ED0D89093
:10582E005C34D96E5D34DA6E0350D9260450DA2218
:10583E00DF50A0EC2BF05C4A5D2A05505C5C0650F4
:10584E005D58D8B01200EBD71D6E000E1E6E0ED036
:10585E001DC00DF01AC0D9FF1BC0DAFFDF500E6E4F
:10586E001E50BBEC2EF01E2A1A4A1B2A1AC0D9FF54
:10587E001BC0DAFFDF50D8A4EBD77FEC2DF012005F
:10588E002F6E000E0E6E270E0D6E7F0E106EF50E25
:10589E000F6E2FC011F0126A23C013F024C014F043
:1058AE00000E166E250E156E69EC2FF0000E1B6E97
:1058BE00270E1A6E000E1C6E010E2BEC2CF0120031
:1058CE000B500A10D8B418D0010E0C6E04D0D8901C
:1058DE000A360B360C2A0BAEFAD70A50085C0B5060
:1058EE000958D8A004D00A50085E0B50095AD89017
:1058FE000B320A320C2EF1D708C008F009C009F09D
:10590E00120002EE00F012EE6AF0EE6AE550E1507F
:10591E00FCE1E250FAE101EE00F011EE00F0EE6A69
:10592E00E550E150FCE1E250FAE100EE60F0650E68
:10593E00EE6AE806FDE15F6A5E6A5D6A5C6A5B6A52
:10594E005A6A000EF86E0001ECEF33F0056E000E91
:10595E00C26E000EC16E000EC06E01507C0BC26E88
:10596E0002C0C1FF05C003F0D8900336D8900336AD
:10597E00380E031605C004F0043A0F0E0416070E77
:10598E0004160550800B04100310C06E01AE03D038
:10599E009E9C9D8CF28CC2801200000E066E000E34
:1059AE00056E04500310D8B41CD0010E076E04D03F
:1059BE00D89003360436072A04AEFAD7D8900536A7
:1059CE0006360350015C04500258D8A005D003508F
:1059DE00015E0450025A0580D89004320332072E1D
:1059EE00EDD705C001F006C002F01200000E096EE0
:1059FE00000E0A6E000E0B6E000E0C6E01A008D08B
:105A0E000550092606500A2207500B2208500C2278
:105A1E00D8900536063607360836D890043203324B
:105A2E00023201320450011002100310D8A4E6D73E
:105A3E0009C001F00AC002F00BC003F00CC004F064
:105A4E001200036E3F0EC716000EC66E0350C6122E
:105A5E000250C71205D0C78C13D0C78CC68810D081
:105A6E000150000AD8B4F7D7020AD8B4F6D7010A03
:105A7E00D8B4F4D705D0928A94860AD0949608D0DA
:105A8E000350040AD8B4F7D7010AD8B4F5D7F6D71D
:105A9E009488949AC68A1200066E000EAC6E000EA2
:105AAE00AB6E06B0AC8806A202D0AC8CAB8C06B442
:105ABE00AC8E06A602D0AB8801D0AB8A06B8AC84F9
:105ACE0006BAAB8606AC02D09D8A01D09D9A06AE70
:105ADE0002D09D8801D09D9801C0AFFF02C003F097
:105AEE0003C004F0056A0450B06EAC8AAB8E12008F
:105AFE00000E0C6E000E0B6E0C50800A800F060E00
:105B0E00D8B40B5CD8B01200000E076E800ED4EC29
:105B1E002BF0000E076E0B504009D4EC2BF0000E4C
:105B2E000A6E670E096E0A50800AF36E800EF35CE1
:105B3E00010ED8B4095CD8A01DD0010E076E0BC0A3
:105B4E0001F00CC002F0000E046E670E036EE7EC5F
:105B5E002BF0095001260A500222000E0124D96EA4
:105B6E00020E0220DA6EDF50D4EC2BF00906D8A01C
:105B7E000A06D9D70B4A0C2ABFD792860F0138874F
:105B8E00928E000E946E000E8B6E000E0F013A6F09
:105B9E00948C948E93928A92D388D38AD38CD3503A
:105BAE00FC0B0209D36E9B909B929B949B969B98A9
:105BBE009B9A9B8CD2989B8E010E016E000E026EEC
:105BCE00000E28EC2DF05EEC2EF0190E0001A36FE6
:105BDE00000E0001A46F000E0001A56F000E000163
:105BEE00A66F000E016E0E0E026EF10EADEC2CF0D5
:105BFE004F0EAB16AC9ACF0E9D16A3C001F0A4C0EB
:105C0E0002F02C0E53EC2DF01200000E0C6E0A500A
:105C1E00800AF36E800EF35C000ED8B4095CD8B027
:105C2E0006D0096C0A1ED8B00A2A010E0C6E085056
:105C3E00800AF36E800EF35C000ED8B4075CD8B009
:105C4E0006D0076C081ED8B0082A010E0C1A000EDA
:105C5E000E6E000E0D6E0A500910D8B41CD0010E37
:105C6E000B6E04D0D89009360A360B2A0AAEFAD734
:105C7E00D8900D360E360950075C0A500858D8A039
:105C8E0005D00950075E0A50085A0D80D8900A3286
:105C9E0009320B2EEDD70C50D8B404D00D6C0E1E5D
:105CAE00D8B00E2A0DC007F00EC008F0120097EC07
:105CBE002BF094928B82949494908B90E80E016EBC
:105CCE00030E026E000E036E000E046EB8EC2BF087
:105CDE008B80E80E016E030E026E000E036E000E38
:105CEE00046EB8EC2BF0000E076E210ED4EC2BF0E8
:105CFE00000E076EC00ED4EC2BF0000E076E060ED3
:105D0E00D4EC2BF0000E076E120ED4EC2BF0000E1E
:105D1E00076E200ED4EC2BF0000E076E090ED4EC9D
:105D2E002BF0EE0E016E020E026E000E036E000ED2
:105D3E00046EB8EC2BF0000E076E080ED4EC2BF0B0
:105D4E00320E016E000E026E000E036E000E046E19
:105D5E00B8EC2BF0000E076E0C0ED4EC2BF0FAEC18
:105D6E002BF07FEC2DF01200136E000E196E000E4C
:105D7E00186E000E126E000E116E000E176E000ED3
:105D8E00166E000E156E000E146E110E136401D0F9
:105D9E001200040E0D5CD8B012000D6601D0120078
:105DAE001350050DA90EF324086E000EF420096E93
:105DBE00020E0B6E6A0E0A6E67EC2CF008C018F01D
:105DCE0009C019F0000E176E000E166E050E165C49
:105DDE00000E1758D8B0120018C008F019C009F0FC
:105DEE00000E0B6E670E0A6E67EC2CF008C014F0F6
:105DFE0009C015F0330E145C000E1558D8B020D023
:105E0E00FD0E1424086EFF0E1520096E000E0B6E8B
:105E1E00050E0A6E67EC2CF009500810D8A410D0AD
:105E2E009C0E1824086E010E1920096E020E0B6EC0
:105E3E006A0E0A6E67EC2CF008C018F009C019F053
:105E4E0014502E0A1510D8A410D0790E1824086EEE
:105E5E00000E1920096E020E0B6E6A0E0A6E67ECAA
:105E6E002CF008C018F009C019F0E00E0E24016ED7
:105E7E00026AFF0E0222000E046E060E036EE7EC9F
:105E8E002BF0BF0E0F6E7C0E106E01500F260250BF
:105E9E00102216500F26175010220FC0F6FF10C0FA
:105EAE00F7FF0800F550116E126A000E1824D96E15
:105EBE00020E1920DA6E11C0DFFF184A192A164A8F
:105ECE00172A84D7000E1C6E110E1B6EA6D0225000
:105EDE00250AD8A40DD0000E196E13D01BC0D9FF01
:105EEE001CC0DAFFDF50226E020E1B26000E1C2293
:105EFE000DC0D9FF0EC0DAFF22C0DFFF0D4A0E2AF9
:105F0E008CD00FC0F6FF10C0F7FF0F4A102A080002
:105F1E00F5CF22F02250000AD8B48AD0630AD8B442
:105F2E00DDD7070AD8B403D00D0AD8A4E1D71BC019
:105F3E00D9FF1CC0DAFFDECF1DF0DDCF1EF0020E42
:105F4E001B26000E1C221E50800AF36E800EF35C80
:105F5E00000ED8B41D5CD8B006D0030E19121D6CFD
:105F6E001E1ED8B01E2A010E226E2250050AD8B46B
:105F7E0016D02250020DEB0EF324F66E7F0EF42097
:105F8E00F76E0900F5CF17F00900F5CF18F017508E
:105F9E001D5C18501E58D8A002D0222AE6D719C070
:105FAE0017F0030E1716D8B408D00DC0D9FF0EC0C7
:105FBE00DAFF2D0EDF6E0D4A0E2A22C01AF029D0FE
:105FCE001A50020DEB0EF324F66E7F0EF420F76ED0
:105FDE000900F5CF03F00A00F5CF04F01DC001F063
:105FEE001EC002F0D4EC2CF001C008F002C009F083
:105FFE00000E0B6E0A0E0A6E67EC2CF00850300F76
:10600E00226E0DC0D9FF0EC0DAFF22C0DFFF0D4A8F
:10601E000E2A1A061A28D8A4D3D70FC0F6FF10C01E
:10602E00F7FF0F4A102A0800F5CF22F022664FD74D
:10603E000DC0D9FF0EC0DAFF000EDF6E1200000E8B
:10604E003D6E000E3E6E000E3F6E000E406E11C095
:10605E0013F0010E146E156A132A03D0D89014365D
:10606E001536132EFBD714C02FF015C030F0000ECE
:10607E0030BEFF0E316E326EFF0E2F241F6EFF0EDE
:10608E003020206EFF0E3120216EFF0E3220226E48
:10609E00000E126E010E116EC4D02FC041F030C032
:1060AE0042F031C043F032C044F044344432433203
:1060BE004232413241503D24136E42503E20146E06
:1060CE0043503F20156E44504020166E2250800AD9
:1060DE00176E13501F5C145020581550215816502F
:1060EE00800A1758D8A0E1D7FF0E4124136EFF0E79
:1060FE004220146EFF0E4320156EFF0E4420166EC6
:10610E003D501314176E3E501414186E3F50151454
:10611E00196E405016141A6E415017243D6E42509F
:10612E0018203E6E435019203F6E44501A20406E88
:10613E0011C013F012C014F0000E14BEFF0E156E37
:10614E00166E1650800A176E3D50135C3E50145852
:10615E003F5015584050800A1758D8B060D0D8908C
:10616E001134D96E1234DA6E0D50D9260E50DA2251
:10617E00DECF33F0DDCF34F0D8903D34D96E3E34DF
:10618E00DA6E0D50D9260E50DA22D8901134E16E07
:10619E001234E26E0D50E1260E50E222DECFE6FF03
:1061AE00DDCFE5FFD8903D34D96E3E34DA6E0D501A
:1061BE00D9260E50DA2233C0DEFF34C0DDFFD89070
:1061CE001134D96E1234DA6E0F50D9261050DA22ED
:1061DE00DECF35F0DDCF36F0D8903D34D96E3E347B
:1061EE00DA6E0F50D9261050DA22D8901134E16EA3
:1061FE001234E26E0F50E1261050E222DECFE6FF9F
:10620E00DDCFE5FFD8903D34D96E3E34DA6E0F50B7
:10621E00D9261050DA2235C0DEFF36C0DDFF114A16
:10622E00122A11C013F012C014F0000E14BEFF0E8D
:10623E00156E166E2250800A176E13501F5C145086
:10624E002058155021581650800A1758D8B025D707
:10625E00010E416E000E426E000E436E000E446E35
:10626E00090E1B6E000E1C6E000E1D6E000E1E6EB5
:10627E009DD2D8904134236E4234246E4334256E21
:10628E004434266E000E126E000E116E68D21BC0C4
:10629E0013F011C014F012C015F0132A03D0D890C9
:1062AE0014361536132EFBD714C045F015C046F024
:1062BE00000E46BEFF0E476E486E000E136E020EA7
:1062CE00146E45C015F046C016F0D8901536163629
:1062DE001350152614501622BF0E1524F66E760E88
:1062EE001620F76E0900F5CF2BF00A00F5CF2CF033
:1062FE0045C013F046C014F0D89013361436BF0EB6
:10630E001324F66E760E1420F76E0900F5CF15F0F5
:10631E000900F5CF16F0151E161E154A162A15C0C1
:10632E002DF016C02EF02C342C322B322E342E3271
:10633E002D3211C039F012C03AF0000E3ABEFF0EE7
:10634E003B6E3C6EFCD141503924456E42503A2092
:10635E00466E43503B20476E44503C20486E2BC047
:10636E0001F02CC002F0000E02BEFF0E036E046E92
:10637E00D8904534D96E4634DA6E0D50D9260E506B
:10638E00DA22DECF05F0DDCF06F0000E06BEFF0EE0
:10639E00076E086EFDEC2CF001C049F002C04AF009
:1063AE0003C04BF004C04CF00E0E136E49C014F037
:1063BE004AC015F04BC016F04CC017F0136601D052
:1063CE0007D017341732163215321432132EF6D771
:1063DE0014C049F015C04AF016C04BF017C04CF06F
:1063EE00010E4914376E386A49C013F04AC014F0D2
:1063FE004BC015F04CC016F016341632153214324E
:10640E00133237501324336E38501420346E2DC08F
:10641E0001F02EC002F0000E02BEFF0E036E046EDF
:10642E00D8904534D96E4634DA6E0F50D9261050B6
:10643E00DA22DECF05F0DDCF06F0000E06BEFF0E2F
:10644E00076E086EFDEC2CF001C049F002C04AF058
:10645E0003C04BF004C04CF00E0E136E49C014F086
:10646E004AC015F04BC016F04CC017F0136601D0A1
:10647E0007D017341732163215321432132EF6D7C0
:10648E0014C049F015C04AF016C04BF017C04CF0BE
:10649E00010E4914376E386A49C013F04AC014F021
:1064AE004BC015F04CC016F016341632153214329D
:1064BE0013323750132638501422131E141E134A4B
:1064CE00142A33501324336E34501420346E2BC0E0
:1064DE0001F02CC002F0000E02BEFF0E036E046E21
:1064EE00D8904534D96E4634DA6E0F50D9261050F6
:1064FE00DA22DECF05F0DDCF06F0000E06BEFF0E6F
:10650E00076E086EFDEC2CF001C049F002C04AF097
:10651E0003C04BF004C04CF00E0E136E49C014F0C5
:10652E004AC015F04BC016F04CC017F0136601D0E0
:10653E0007D017341732163215321432132EF6D7FF
:10654E0014C049F015C04AF016C04BF017C04CF0FD
:10655E00010E4914376E386A49C013F04AC014F060
:10656E004BC015F04CC016F01634163215321432DC
:10657E00133237501324356E38501420366E2DC01A
:10658E0001F02EC002F0000E02BEFF0E036E046E6E
:10659E00D8904534D96E4634DA6E0D50D9260E5049
:1065AE00DA22DECF05F0DDCF06F0000E06BEFF0EBE
:1065BE00076E086EFDEC2CF001C049F002C04AF0E7
:1065CE0003C04BF004C04CF00E0E136E49C014F015
:1065DE004AC015F04BC016F04CC017F0136601D030
:1065EE0007D017341732163215321432132EF6D74F
:1065FE0014C049F015C04AF016C04BF017C04CF04D
:10660E00010E4914376E386A49C013F04AC014F0AF
:10661E004BC015F04CC016F016341632153214322B
:10662E001332375013263850142235501324356E3A
:10663E0036501420366ED8903934D96E3A34DA6E1C
:10664E000D50D9260E50DA22DECF27F0DDCF28F0FE
:10665E00D8903934D96E3A34DA6E0F50D92610509C
:10666E00DA22DECF29F0DDCF2AF028342832273285
:10667E002A342A32293233C013F034C014F0131ED8
:10668E00141E134A142A2750132628501422D89069
:10669E004534D96E4634DA6E0D50D9260E50DA22B4
:1066AE0013C0DEFF14C0DDFF35C013F036C014F08A
:1066BE00131E141E134A142A295013262A5014226C
:1066CE00D8904534D96E4634DA6E0F50D926105014
:1066DE00DA2213C0DEFF14C0DDFF27C013F028C07E
:1066EE0014F03350132634501422D8903934D96E06
:1066FE003A34DA6E0D50D9260E50DA2213C0DEFF70
:10670E0014C0DDFF29C013F02AC014F03550132633
:10671E0036501422D8903934D96E3A34DA6E0F507E
:10672E00D9261050DA2213C0DEFF14C0DDFF23502D
:10673E00392624503A2225503B2226503C223C50EA
:10674E00800A136E2F50395C30503A5831503B58F6
:10675E003250800A1358D8A0F6D5114A122A11C009
:10676E0013F012C014F0000E14BEFF0E156E166E4E
:10677E001650800A176E4150135C42501458435005
:10678E0015584450800A1758D8A081D5FF0E1B26E5
:10679E00FF0E1C22FF0E1D22FF0E1E2223C041F0F3
:1067AE0024C042F025C043F026C044F04450800A75
:1067BE00136E2F50415C3050425831504358325076
:1067CE00800A1358D8B0120054D5C4EC2DF0000E28
:1067DE000001D26F000E0001D16F000E0001D26FCA
:1067EE00000E0001D16F0001D251800A800F400EC1
:1067FE00D8B4D15DD8B04AD098EC2BF09AEC2BF0EF
:10680E000009D8A4FBD7C350C4CF4DF04E6A4DC07B
:10681E004EF04D6A4D26000E4E22000E4D24000104
:10682E00C56FFE0E4E200001C66F800E4D6E010E1E
:10683E004E6ED8900001D135D96E0001D235DA6E88
:10684E004D50D9264E50DA220001C5C0DEFF0001A0
:10685E00C6C0DDFF000E4D6E010E4E6ED8900001CB
:10686E00D135D96E0001D235DA6E4D50D9264E5043
:10687E00DA22000EDE6E000EDD6EFA0E00D000F093
:10688E00E82EFCD70001D14BD22BADD70101010E62
:10689E000E6E0101800E0D6E0101010E106E0101D2
:1068AE00000E0F6E000E126E060E116E26EC30F0FC
:1068BE00000E0001D06F000E0001CF6F000E000120
:1068CE00D06F000E0001CF6F0001D051800A800FF3
:1068DE00200ED8B4CF5DD8B0B7D1800E4D6E010E5C
:1068EE004E6ED8900001CF35D96E0001D035DA6EDC
:1068FE004D50D9264E50DA22DECF01F0DDCF02F018
:10690E00800E4F6E010E506ED8900001CF35D96EAD
:10691E000001D035DA6E4F50D9265050DA22DECF34
:10692E0003F0DDCF04F0E7EC2BF001C051F002C014
:10693E0052F0000E536E010E546ED8900001CF35FA
:10694E00D96E0001D035DA6E5350D9265450DA2262
:10695E00DECF01F0DDCF02F0000E556E010E566E49
:10696E00D8900001CF35D96E0001D035DA6E555072
:10697E00D9265650DA22DECF03F0DDCF04F0E7EC55
:10698E002BF00150512602505222800E576E010EEE
:10699E00586ED8900001CF35D96E0001D035DA6E21
:1069AE005750D9265850DA2251C0DEFF52C0DDFFB3
:1069BE00000E0001CB6F000E0001CC6F000E000127
:1069CE00CD6F400E0001CE6F000E0001C76F000E9E
:1069DE000001C86F000E0001C96F000E0001CA6FE2
:1069EE00800E4D6E010E4E6ED8900001CF35D96ED1
:1069FE000001D035DA6E4D50D9264E50DA22DECF58
:106A0E004FF0DDCF50F050AE21D005D1020E4D6EBD
:106A1E000001CBC04EF00001CCC04FF00001CDC044
:106A2E0050F00001CEC051F04D6601D007D0513468
:106A3E00513250324F324E324D2EF6D74EC0CBF031
:106A4E004FC0CCF050C0CDF051C0CEF0800E4D6E88
:106A5E00010E4E6ED8900001CF35D96E0001D035A3
:106A6E00DA6E4D50D9264E50DA22DECF4FF0DDCF02
:106A7E0050F04FC051F050C052F0000E52BEFF0EFB
:106A8E00536E546E5450800A556E0001CB51515CBA
:106A9E000001CC5152580001CD5153580001CE5136
:106AAE00800A5558D8B0B0D0B1D70001CB510001F3
:106ABE00C7254D6E0001CC510001C8214E6E00015C
:106ACE00CD510001C9214F6E0001CE510001CA21E6
:106ADE00506E800E516E010E526ED8900001CF3561
:106AEE00D96E0001D035DA6E5150D9265250DA22C5
:106AFE00DECF53F0DDCF54F053C055F054C056F0F6
:106B0E00000E56BEFF0E576E586E5850800A596EC4
:106B1E004D50555C4E5056584F5057585050800A55
:106B2E005958D8A038D00001C7C04DF00001C8C0D8
:106B3E004EF00001CB514D260001CC514E22800E5D
:106B4E004F6E010E506ED8900001CF35D96E0001F8
:106B5E00D035DA6E4F50D9265050DA224D50DE5EC7
:106B6E004E50DD5AD8900001CB354D6E0001CC351C
:106B7E004E6E0001CD354F6E0001CE35506E4D502C
:106B8E000001C7274E500001C8234F500001C923F2
:106B9E0050500001CA230001C7C04DF00001C8C00B
:106BAE004EF00001C9C04FF00001CAC050F0503481
:106BBE0050324F324E324D324DC0C7F04EC0C8F03B
:106BCE004FC0C9F050C0CAF0020E4D6E0001CBC0CE
:106BDE004EF00001CCC04FF00001CDC050F00001CE
:106BEE00CEC051F04D6601D007D0513451325032E3
:106BFE004F324E324D2EF6D74EC0CBF04FC0CCF0AA
:106C0E0050C0CDF051C0CEF00001CE51CB11CC1101
:106C1E00CD11D8A44AD7800E4D6E010E4E6ED8906F
:106C2E000001CF35D96E0001D035DA6E4D50D92620
:106C3E004E50DA220001C7C0DEFF0001C8C0DDFFE2
:106C4E000001CF4BD02B40D6000E0001D26F010EAB
:106C5E000001D16F0001D251800A800F210ED8B4ED
:106C6E00D15DD8B06FD0FE0E4D6EFF0E4E6E000190
:106C7E00D1C04FF00001D2C050F0D8904F365036F0
:106C8E004D504F264E5050220001600E4F24D96EAB
:106C9E000001000E5020DA6EDECF01F0DDCF02F0E3
:106CAE00000E046E0A0E036EE7EC2BF001C007F027
:106CBE0002C008F0000E0A6E100E096E0CEC2EF0DB
:106CCE0007C051F008C052F0800E536E010E546E84
:106CDE00D8900001D135D96E0001D235DA6E5350FD
:106CEE00D9265450DA22DECF01F0DDCF02F0000EAD
:106CFE00046E060E036EE7EC2BF001C007F002C027
:106D0E0008F0000E0A6E100E096E0CEC2EF00750F5
:106D1E00512608505222800E556E010E566ED89096
:106D2E000001D135D96E0001D235DA6E5550D92613
:106D3E005650DA2251C0DEFF52C0DDFF0001D14BAA
:106D4E00D22B88D7000E0001D26F010E0001D16F39
:106D5E000001D251800A800F210ED8B4D15DD8B077
:106D6E0030D0800E4D6E010E4E6ED8900001D13592
:106D7E00D96E0001D235DA6E4D50D9264E50DA2238
:106D8E00FE0E4F6EFF0E506E0001D1C051F000018D
:106D9E00D2C052F0D890513652364F5051265050E4
:106DAE0052220001600E5124E16E0001000E5220AD
:106DBE00E26EDECFE6FFDDCFE5FF0001D14BD22B39
:106DCE00C7D7000E0001BE6F000E0001BD6F000E92
:106DDE000001C06F000E0001BF6F000E0001C26FF8
:106DEE00000E0001C16F000E0001C46F000E000105
:106DFE00C36F000E0001D26F000E0001D16F0001B3
:106E0E00D251800A800F1F0ED8B4D15DD8B03AD0BF
:106E1E000001D1C04DF00001D2C04EF0D8904D36D9
:106E2E004E36F30E4D24F66E7E0E4E20F76E090092
:106E3E00F5CF01F00A00F5CF02F00001D1C04FF0FE
:106E4E000001D2C050F0D8904F365036020E4F2669
:106E5E00000E50220101800E4F24D96E0101010E49
:106E6E005020DA6EDECF03F0DDCF04F0E7EC2BF02E
:106E7E0001500001BD2702500001BE230001D14B7D
:106E8E00D22BBDD70001BE51800AF36E800EF35C8B
:106E9E00000ED8B4BD5DD8B007D0000E0001BE6F95
:106EAE00000E0001BD6F34D0010121EEA0F00101F2
:106EBE0011EE86F0E652DE52E550800A4D6EDD5040
:106ECE00800A4D5C02E1DF50E75CD8B021D00101B1
:106EDE0021EE9AF0010111EEAEF0E652DE52E550CF
:106EEE00800A4D6EDD50800A4D5C02E1DF50E75C9A
:106EFE00D8B00ED0BDC007F0BEC008F0000E0A6EAE
:106F0E00040E096E0CEC2EF007C0BDF008C0BEF0EA
:106F1E00000E0001D26F000E0001D16F0001D251A0
:106F2E00800A800F1F0ED8B4D15DD8B03AD00001C0
:106F3E00D1C04DF00001D2C04EF0D8904D364E3635
:106F4E00310E4D24F66E7F0E4E20F76E0900F5CFF2
:106F5E0001F00A00F5CF02F00001D1C04FF00001A0
:106F6E00D2C050F0D8904F365036020E4F26000E3B
:106F7E0050220101800E4F24D96E0101010E5020C6
:106F8E00DA6EDECF03F0DDCF04F0E7EC2BF001502C
:106F9E000001BF2702500001C0230001D14BD22BAC
:106FAE00BDD70001C051800AF36E800EF35C000E57
:106FBE00D8B4BF5DD8B007D0000E0001C06F000E70
:106FCE000001BF6F47D0010121EEBCF0010111EEAF
:106FDE00B0F0E652DE52E550800A4D6EDD50800A6A
:106FEE004D5C02E1DF50E75CD8B034D0010121EEF8
:106FFE009EF0010111EE82F0E652DE52E550800A5B
:10700E004D6EDD50800A4D5C02E1DF50E75CD8B07A
:10701E0021D0010121EEBAF0010111EE90F0E652FD
:10702E00DE52E550800A4D6EDD50800A4D5C02E165
:10703E00DF50E75CD8B00ED0BFC007F0C0C008F07C
:10704E00000E0A6E040E096E0CEC2EF007C0BFF097
:10705E0008C0C0F0000E0001D26F000E0001D16F0B
:10706E000001D251800A800F1F0ED8B4D15DD8B066
:10707E003AD00001D1C04DF00001D2C04EF0D890F0
:10708E004D364E366F0E4D24F66E7F0E4E20F76E39
:10709E000900F5CF01F00A00F5CF02F00001D1C0D2
:1070AE004FF00001D2C050F0D8904F365036020E3D
:1070BE004F26000E50220101800E4F24D96E010181
:1070CE00010E5020DA6EDECF03F0DDCF04F0E7ECD8
:1070DE002BF001500001C12702500001C223000114
:1070EE00D14BD22BBDD70001C251800AF36E800E58
:1070FE00F35C000ED8B4C15DD8B007D0000E00010D
:10710E00C26F050E0001C16F80D0010121EEAAF001
:10711E00010111EE8EF0E652DE52E550800A4D6E00
:10712E00DD50800A4D5C02E1DF50E75CD8B06DD0D7
:10713E00010121EEA0F0010111EE94F0E652DE52B3
:10714E00E550800A4D6EDD50800A4D5C02E1DF5045
:10715E00E75CD8B05AD0010121EEB2F0010111EE78
:10716E0082F0E652DE52E550800A4D6EDD50800A06
:10717E004D5C02E1DF50E75CD8B047D0010121EE53
:10718E00A8F0010111EEB0F0E652DE52E550800A91
:10719E004D6EDD50800A4D5C02E1DF50E75CD8B0E9
:1071AE0034D0010121EE98F0010111EE8AF0E65281
:1071BE00DE52E550800A4D6EDD50800A4D5C02E1D4
:1071CE00DF50E75CD8B021D0010121EEB6F001010D
:1071DE0011EE94F0E652DE52E550800A4D6EDD500F
:1071EE00800A4D5C02E1DF50E75CD8B00ED0C1C022
:1071FE0007F0C2C008F0000E0A6E040E096E0CEC09
:10720E002EF007C0C1F008C0C2F0000E0001D26F10
:10721E00000E0001D16F0001D251800A800F1F0EA7
:10722E00D8B4D15DD8B03AD00001D1C04DF0000134
:10723E00D2C04EF0D8904D364E36AD0E4D24F66E71
:10724E007F0E4E20F76E0900F5CF01F00A00F5CF44
:10725E0002F00001D1C04FF00001D2C050F0D89022
:10726E004F365036020E4F26000E50220101800E70
:10727E004F24D96E0101010E5020DA6EDECF03F0DD
:10728E00DDCF04F0E7EC2BF001500001C3270250D4
:10729E000001C4230001D14BD22BBDD70001C45134
:1072AE00800AF36E800EF35C000ED8B4C35DD8B0C6
:1072BE0007D0000E0001C46F000E0001C36F5AD03C
:1072CE00010121EEB8F0010111EE90F0E652DE520E
:1072DE00E550800A4D6EDD50800A4D5C02E1DF50B4
:1072EE00E75CD8B047D0010121EEA2F0010111EE0A
:1072FE00B6F0E652DE52E550800A4D6EDD50800A41
:10730E004D5C02E1DF50E75CD8B034D0010121EED4
:10731E00BAF0010111EE82F0E652DE52E550800A1B
:10732E004D6EDD50800A4D5C02E1DF50E75CD8B057
:10733E0021D0010121EEAAF0010111EE84F0E652F6
:10734E00DE52E550800A4D6EDD50800A4D5C02E142
:10735E00DF50E75CD8B00ED0C3C007F0C4C008F051
:10736E00000E0A6E040E096E0CEC2EF007C0C3F070
:10737E0008C0C4F0000E0001B46F0001B369BDC0B7
:10738E00B5F0BEC0B6F0BFC0B7F0C0C0B8F0C1C057
:10739E00B9F0C2C0BAF0C3C0BBF0C4C0BCF0000E9E
:1073AE000001AE6F000E0001AD6F000E0001D26F36
:1073BE00010E0001D16F0001D251800A800F050E1F
:1073CE00D8B4D15DD8B038D0B30E4D6E000E4E6E1F
:1073DE00D8900001D135D96E0001D235DA6E4D50FC
:1073EE00D9264E50DA22DECF4FF0DDCF50F000011D
:1073FE00AE51800A516E4F500001AD5D5050800A63
:10740E005158D8B015D0B30E4D6E000E4E6ED890AA
:10741E000001D135D96E0001D235DA6E4D50D92624
:10742E004E50DA220001DECFADF00001DDCFAEF01E
:10743E000001D14BD22BBFD7000E0001A86F000E5A
:10744E000001A76F000E0001AA6F000E0001A96FC8
:10745E00000E0001AC6F000E0001AB6F000E0001BC
:10746E00B06F000E0001AF6F0001AE51800A800FA9
:10747E00150ED8B4AD5DD8A00DD18A820001BDC065
:10748E004DF00001BEC04EF00001BF514D2600016F
:10749E00C0514E220001C1514D260001C2514E2253
:1074AE000001C3514D240001B16F0001C4514E20A3
:1074BE000001B26FBDC001F0BEC002F0000E046E3E
:1074CE00640E036EE7EC2BF001C007F002C008F06B
:1074DE00B1C009F0B2C00AF00CEC2EF007C0A7F054
:1074EE0008C0A8F0BFC001F0C0C002F0000E046ECC
:1074FE00640E036EE7EC2BF001C007F002C008F03B
:10750E00B1C009F0B2C00AF00CEC2EF007C0A9F021
:10751E0008C0AAF0C1C001F0C2C002F0000E046E95
:10752E00640E036EE7EC2BF001C007F002C008F00A
:10753E00B1C009F0B2C00AF00CEC2EF007C0ABF0EF
:10754E0008C0ACF0C3C001F0C4C002F0000E046E5F
:10755E00640E036EE7EC2BF001C007F002C008F0DA
:10756E00B1C009F0B2C00AF00CEC2EF007C0AFF0BB
:10757E0008C0B0F00001BE510001AE1904E10001D7
:10758E00BD510001AD19D8A40CD0A7C023F0A8C0DE
:10759E0024F0000E266E010E256E410E47EC2CF0E7
:1075AE0044D00001C0510001AE1904E10001BF51E9
:1075BE000001AD19D8A40CD0A9C023F0AAC024F0A4
:1075CE00000E266E010E256E470E47EC2CF02DD0C8
:1075DE000001C2510001AE1904E10001C1510001C8
:1075EE00AD19D8A40CD0ABC023F0ACC024F0000E63
:1075FE00266E010E256E480E47EC2CF016D00001BB
:10760E00C4510001AE1904E10001C3510001AD19CE
:10761E00D8A40BD0AFC023F0B0C024F0000E266E5D
:10762E00010E256E530E47EC2CF0000E0001D26FAA
:10763E00000E0001D16F0001D251800A800F0A0E98
:10764E00D8B4D15DD8B00BD0820E4D6EDE0EE82EC2
:10765E00FED74D2EFCD70001D14BD22BECD78A9200
:10766E00000E0001D26F000E0001D16F0001D25149
:10767E00800A800F0A0ED8B4D15DD8B00BD0820E1E
:10768E004D6EDE0EE82EFED74D2EFCD70001D14BEF
:10769E00D22BECD70001000E046E0001B30E036E68
:1076AE00000E066E050E056E11EC2CF0EEEF33F0AB
:1076BE00000000C90092015B022403ED03B6047EB4
:1076CE000547061007D907A1086A09320AFB0AC343
:1076DE000B8B0C530D1B0EE30EAB0F7210391100FA
:1076EE0012C7128E1355141B15E115A7166D1733FD
:1076FE0018F818BD19821A461B0B1CCF1C931D5669
:10770E001E191FDC1F9F2061212322E422A623675E
:10771E00242725E725A72667272628E528A32961FC
:10772E002A1E2BDB2B982C542D102ECC2E862F415F
:10773E0030FB30B4316D322633DE3396344D3503A3
:10774E0036B9366F372438D8388C393F3AF23AA4E6
:10775E003B563C073DB73D673E163FC53F73402045
:10776E0041CD4179422543D0437A442345CC4574DB
:10777E00461C47C34769480E49B349574AFA4A9DC2
:10778E004B3F4CE04C804D204EBF4E5D4FFA4F9715
:10779E00503351CE51685201539A533254C9545FEB
:1077AE0055F45589561D57B0574258D3586359F35F
:1077BE0059815A0F5B9C5B285CB35C3D5DC65D4F87
:1077CE005ED65E5D5FE25F6760EB606E61F0617179
:1077DE0062F1627063EE636B64E7646265DD655649
:1077EE0066CE664567BC673168A56819698B69FC0A
:1077FE00696C6ADB6A4A6BB76B236C8E6CF86C61D2
:10780E006DC96D306E956EFA6E5E6FC06F227082AE
:10781E0070E17040719D71F9715472AE7206735EB3
:10782E0073B5730A745E74B17403755475A475F3ED
:10783E007540768D76D87622776B77B377F9773F6A
:10784E00788378C678087949798979C779047A4135
:10785E007A7C7AB57AEE7A257B5C7B917BC47BF75A
:10786E007B297C597C887CB67CE27C0E7D387D61E0
:10787E007D897DB07DD57DF97D1C7E3E7E5E7E7ED2
:10788E007E9C7EB97ED47EEF7E087F207F377F4C34
:10789E007F617F747F867F967FA67FB47FC17FCD09
:1078AE007FD77FE07FE87FEF7FF57FF97FFC7FFE5C
:1078BE007FFF7FFE7FFC7FF97FF57FEF7FE87FE024
:1078CE007FD77FCD7FC17FB47FA67F967F867F7463
:1078DE007F617F4C7F377F207F087FEF7ED47EB91C
:1078EE007E9C7E7E7E5E7E3E7E1C7EF97DD57DB04C
:1078FE007D897D617D387D0E7DE27CB67C887C59EC
:10790E007C297CF77BC47B917B5C7B257BEE7AB5F7
:10791E007A7C7A417A047AC779897949790879C665
:10792E007883783F78F977B3776B772277D8768D2F
:10793E00764076F375A47554750375B1745E740A4A
:10794E0074B5735E730673AE725472F9719D7140A5
:10795E0071E17082702270C06F5E6FFA6E956E303C
:10796E006EC96D616DF86C8E6C236CB76B4A6BDBF8
:10797E006A6C6AFC698B691969A5683168BC6745D0
:10798E0067CE665666DD656265E7646B64EE6370AE
:10799E0063F1627162F0616E61EB606760E25F5D80
:1079AE005FD65E4F5EC65D3D5DB35C285C9C5B0F33
:1079BE005B815AF3596359D3584258B0571D5789B2
:1079CE0056F4555F55C95432549A5301536852CEEA
:1079DE005133519750FA4F5D4FBF4E204E804DE0C0
:1079EE004C3F4C9D4BFA4A574AB3490E496948C31E
:1079FE00471C477446CC4523457A44D043254379EA
:107A0E0042CD4120417340C53F163F673EB73D070B
:107A1E003D563CA43BF23A3F3A8C39D83824386F65
:107A2E0037B93603364D359634DE3326336D32B4E0
:107A3E0031FB304130862FCC2E102E542D982CDB5E
:107A4E002B1E2B612AA329E52826286727A726E7C0
:107A5E002527256724A623E422232261219F20DCEB
:107A6E001F191F561E931DCF1C0B1C461B821ABDC1
:107A7E0019F81833186D17A716E1151B1555148E26
:107A8E0013C712001239117210AB0FE30E1B0E53F7
:107A9E000D8B0CC30BFB0A320A6A09A108D9071019
:107AAE000747067E05B604ED0324035B029201C967
:107ABE0000000037FF6EFEA5FDDCFC13FC4AFB82C6
:107ACE00FAB9F9F0F827F85FF796F6CEF505F53D19
:107ADE00F475F3ADF2E5F11DF155F08EEFC7EE0042
:107AEE00EE39ED72ECABEBE5EA1FEA59E993E8CD1E
:107AFE00E708E743E67EE5BAE4F5E331E36DE2AA93
:107B0E00E1E7E024E061DF9FDEDDDD1CDD5ADC997C
:107B1E00DBD9DA19DA59D999D8DAD71BD75DD69FBE
:107B2E00D5E2D425D468D3ACD2F0D134D17AD0BF3B
:107B3E00CF05CF4CCE93CDDACC22CC6ACBB3CAFDD7
:107B4E00C947C991C8DCC728C774C6C1C50EC55C74
:107B5E00C4AAC3F9C249C299C1EAC03BC08DBFE0F5
:107B6E00BE33BE87BDDBBC30BC86BBDDBA34BA8C3F
:107B7E00B9E4B83DB897B7F2B64DB6A9B506B56338
:107B8E00B4C1B320B380B2E0B141B1A3B006B069C5
:107B9E00AFCDAE32AE98ADFFAC66ACCEAB37ABA1CF
:107BAE00AA0CAA77A9E3A850A8BEA72DA79DA60D3B
:107BBE00A67FA5F1A464A4D8A34DA3C3A23AA2B1F3
:107BCE00A12AA1A3A01EA0999F159F929E109E8FE1
:107BDE009D0F9D909C129C959B199B9E9A239AAAF1
:107BEE00993299BB984498CF975B97E79675960410
:107BFE009694952595B6944994DD93729308939F28
:107C0E00923792D0916B910691A2904090DE8F7E2A
:107C1E008F1F8FC08E638E078EAC8D528DFA8CA205
:107C2E008C4B8CF68BA28B4F8BFD8AAC8A5C8A0DAB
:107C3E008AC08973892889DE8895884D880788C10E
:107C4E00877D873A87F886B78677863986FC85BF23
:107C5E008584854B851285DB84A4846F843C8409DE
:107C6E0084D783A78378834A831E83F282C8829F38
:107C7E0082778250822B820782E481C281A2818226
:107C8E0081648147812C811181F880E080C980B4A4
:107C9E00809F808C807A806A805A804C803F8033AF
:107CAE008029802080188011800B8007800480023C
:107CBE008000000000000000002F00000000070000
:107CCE00070000147F147F1400242A7F2A1200C498
:107CDE00C810264600364955225000000503000004
:107CEE0000001C224100000041221C000014083E2E
:107CFE0008140008083E080800000050300000106C
:107D0E001010101000006060000000201008040227
:107D1E00003E5149453E0000427F40000042615105
:107D2E004946002141454B31001814127F1000279F
:107D3E0045454539003C4A49493000017109050362
:107D4E0000364949493600064949291E0000363693
:107D5E0000000000563600000008142241000014F6
:107D6E0014141414000041221408000201510906D3
:107D7E0000324959513E007E1111117E007F494952
:107D8E004936003E41414122007F4141221C007F85
:107D9E0049494941007F09090901003E4149497A93
:107DAE00007F0808087F0000417F4100002040410D
:107DBE003F01007F08142241007F40404040007F79
:107DCE00020C027F007F0408107F003E4141413EBD
:107DDE00007F09090906003E4151215E007F091905
:107DEE0029460046494949310001017F0101003F02
:107DFE004040403F001F2040201F003F4038403F82
:107E0E0000631408146300070870080700615149E5
:107E1E00454300007F41410000552A552A55000078
:107E2E0041417F00000402010204004040404040F6
:107E3E00000001020400002054545478007F48448E
:107E4E00443800384444442000384444487F0038C5
:107E5E005454541800087E090102000C5252523E2E
:107E6E00007F080404780000447D40000020404458
:107E7E003D00007F102844000000417F4000007C40
:107E8E0004180478007C080404780038444444380C
:107E9E00007C1414140800081414187C007C0804C8
:107EAE00040800485454542000043F444020003C31
:107EBE004040207C001C2040201C003C4030403CB8
:107ECE00004428102844000C5050503C0044645488
:107EDE004C4400086C6A1908000C1224120C007E27
:107EEE007E7E7E7E0000000000FFFF00000000008E
:107EFE0000FFFFFDFFFFFFFDFF0000FDFF00000084
:107F0E000000000000000000000000000000000360
:107F1E000003000300020000000200020000000047
:107F2E00000000000003000300000000000000003D
:107F3E00000000000000000000FFFFFDFFFDFFFD40
:107F4E00FFFFFFFFFF000000000000000000000226
:107F5E00000000000000000200030002000000000C
:107F6E0000000000000000000000000000020003FE
:107F7E0000020000000000000000000000000003EE
:107F8E0000020000000000FDFFFFFF0000000003E4
:107F9E000000000000FFFFFDFFFDFFFFFF000000DF
:107FAE0000030000000000030002000200030002B4
:107FBE000000000000FFFFFFFFFDFF0000000000BB
:107FCE000000000000FFFFFDFFFDFF0000000000AD
:107FDE000000000000000000000000000001000A88
:107FEE00006400E803102725632025642025630024
:027FFE00000081
:020000040020DA
:08000000FFFFFFFFFFFFFFFF00
:020000040030CA
:0E000000FF091F3CFFBF81FF0FC00FE00F4044
:00000001FF
